:100000000C9434000C943E000C943E000C943E0082
:100010000C943E000C943E000C943E000C943E0068
:100020000C943E000C943E000C943E000C943E0058
:100030000C943E000C943E000C943E000C943E0048
:100040000C943E000C943E000C943E000C943E0038
:100050000C943E000C943E000C943E000C943E0028
:100060000C943E000C943E0011241FBECFEFD8E04C
:10007000DEBFCDBF0E9440000C9484000C940000B1
:100080001AB888E38BB9259A99B189B1807129B1E1
:10009000207293FD20C041E030E0811123C0222373
:1000A00019F1842F932F21E030E045B1822393236F
:1000B00021E08227880F991F82959295907F98273B
:1000C000807F9827842B85B999B189B1807129B136
:1000D000207293FFE0CF882349F081E090E021E097
:1000E00030E0E3CF2223E9F240E0DBCF41E030E033
:1000F000211101C040E0842F932F51E040E02111F5
:0C01000050E0252F342FD1CFF894FFCF12
:00000001FF
